{
  "address": "0x011A9F78bc39f1fC7A4F208C8b8165dfa49C0225",
  "abi": [
    {
      "inputs": [
        {
          "internalType": "uint256",
          "name": "_entranceFee",
          "type": "uint256"
        },
        {
          "internalType": "uint16",
          "name": "_platformFee",
          "type": "uint16"
        },
        {
          "internalType": "address",
          "name": "_priceFeed",
          "type": "address"
        },
        {
          "internalType": "uint256",
          "name": "_timeInterval",
          "type": "uint256"
        },
        {
          "internalType": "address",
          "name": "_vrfCoordinatorV2",
          "type": "address"
        },
        {
          "internalType": "uint64",
          "name": "_subscriptionId",
          "type": "uint64"
        },
        {
          "internalType": "bytes32",
          "name": "_gasLane",
          "type": "bytes32"
        },
        {
          "internalType": "uint32",
          "name": "_callbackGasLimit",
          "type": "uint32"
        }
      ],
      "stateMutability": "nonpayable",
      "type": "constructor"
    },
    {
      "inputs": [
        {
          "internalType": "address",
          "name": "have",
          "type": "address"
        },
        {
          "internalType": "address",
          "name": "want",
          "type": "address"
        }
      ],
      "name": "OnlyCoordinatorCanFulfill",
      "type": "error"
    },
    {
      "anonymous": false,
      "inputs": [
        {
          "indexed": true,
          "internalType": "address",
          "name": "player",
          "type": "address"
        }
      ],
      "name": "LotteryJoin",
      "type": "event"
    },
    {
      "anonymous": false,
      "inputs": [
        {
          "indexed": true,
          "internalType": "uint256",
          "name": "requestId",
          "type": "uint256"
        }
      ],
      "name": "RequestedLotteryWinner",
      "type": "event"
    },
    {
      "anonymous": false,
      "inputs": [
        {
          "indexed": true,
          "internalType": "address",
          "name": "winner",
          "type": "address"
        }
      ],
      "name": "WinnerPicked",
      "type": "event"
    },
    {
      "inputs": [
        {
          "internalType": "address",
          "name": "",
          "type": "address"
        }
      ],
      "name": "balance",
      "outputs": [
        {
          "internalType": "uint256",
          "name": "",
          "type": "uint256"
        }
      ],
      "stateMutability": "view",
      "type": "function"
    },
    {
      "inputs": [
        {
          "internalType": "bytes",
          "name": "",
          "type": "bytes"
        }
      ],
      "name": "checkUpkeep",
      "outputs": [
        {
          "internalType": "bool",
          "name": "upkeepNeeded",
          "type": "bool"
        },
        {
          "internalType": "bytes",
          "name": "",
          "type": "bytes"
        }
      ],
      "stateMutability": "view",
      "type": "function"
    },
    {
      "inputs": [],
      "name": "endTime",
      "outputs": [
        {
          "internalType": "uint256",
          "name": "",
          "type": "uint256"
        }
      ],
      "stateMutability": "view",
      "type": "function"
    },
    {
      "inputs": [],
      "name": "entranceFee",
      "outputs": [
        {
          "internalType": "uint256",
          "name": "",
          "type": "uint256"
        }
      ],
      "stateMutability": "view",
      "type": "function"
    },
    {
      "inputs": [],
      "name": "getEntranceFeePerETH",
      "outputs": [
        {
          "internalType": "uint256",
          "name": "",
          "type": "uint256"
        }
      ],
      "stateMutability": "view",
      "type": "function"
    },
    {
      "inputs": [],
      "name": "getNumberOfPlayers",
      "outputs": [
        {
          "internalType": "uint256",
          "name": "",
          "type": "uint256"
        }
      ],
      "stateMutability": "view",
      "type": "function"
    },
    {
      "inputs": [],
      "name": "joinLottery",
      "outputs": [],
      "stateMutability": "payable",
      "type": "function"
    },
    {
      "inputs": [],
      "name": "lotteryBalance",
      "outputs": [
        {
          "internalType": "uint256",
          "name": "",
          "type": "uint256"
        }
      ],
      "stateMutability": "view",
      "type": "function"
    },
    {
      "inputs": [],
      "name": "lotteryState",
      "outputs": [
        {
          "internalType": "enum Lottery.LotteryState",
          "name": "",
          "type": "uint8"
        }
      ],
      "stateMutability": "view",
      "type": "function"
    },
    {
      "inputs": [],
      "name": "owner",
      "outputs": [
        {
          "internalType": "address",
          "name": "",
          "type": "address"
        }
      ],
      "stateMutability": "view",
      "type": "function"
    },
    {
      "inputs": [
        {
          "internalType": "bytes",
          "name": "",
          "type": "bytes"
        }
      ],
      "name": "performUpkeep",
      "outputs": [],
      "stateMutability": "nonpayable",
      "type": "function"
    },
    {
      "inputs": [],
      "name": "platformFee",
      "outputs": [
        {
          "internalType": "uint16",
          "name": "",
          "type": "uint16"
        }
      ],
      "stateMutability": "view",
      "type": "function"
    },
    {
      "inputs": [
        {
          "internalType": "uint256",
          "name": "",
          "type": "uint256"
        }
      ],
      "name": "players",
      "outputs": [
        {
          "internalType": "address",
          "name": "",
          "type": "address"
        }
      ],
      "stateMutability": "view",
      "type": "function"
    },
    {
      "inputs": [],
      "name": "priceFeed",
      "outputs": [
        {
          "internalType": "contract AggregatorV3Interface",
          "name": "",
          "type": "address"
        }
      ],
      "stateMutability": "view",
      "type": "function"
    },
    {
      "inputs": [
        {
          "internalType": "uint256",
          "name": "requestId",
          "type": "uint256"
        },
        {
          "internalType": "uint256[]",
          "name": "randomWords",
          "type": "uint256[]"
        }
      ],
      "name": "rawFulfillRandomWords",
      "outputs": [],
      "stateMutability": "nonpayable",
      "type": "function"
    },
    {
      "inputs": [],
      "name": "recentWinner",
      "outputs": [
        {
          "internalType": "address",
          "name": "",
          "type": "address"
        }
      ],
      "stateMutability": "view",
      "type": "function"
    },
    {
      "inputs": [],
      "name": "subscriptionId",
      "outputs": [
        {
          "internalType": "uint64",
          "name": "",
          "type": "uint64"
        }
      ],
      "stateMutability": "view",
      "type": "function"
    },
    {
      "inputs": [],
      "name": "timeInterval",
      "outputs": [
        {
          "internalType": "uint256",
          "name": "",
          "type": "uint256"
        }
      ],
      "stateMutability": "view",
      "type": "function"
    },
    {
      "inputs": [
        {
          "internalType": "uint256",
          "name": "_entranceFee",
          "type": "uint256"
        }
      ],
      "name": "updateEntranceFee",
      "outputs": [],
      "stateMutability": "nonpayable",
      "type": "function"
    },
    {
      "inputs": [
        {
          "internalType": "uint16",
          "name": "_platformFee",
          "type": "uint16"
        }
      ],
      "name": "updatePlatformFee",
      "outputs": [],
      "stateMutability": "nonpayable",
      "type": "function"
    },
    {
      "inputs": [
        {
          "internalType": "uint256",
          "name": "_timeInterval",
          "type": "uint256"
        }
      ],
      "name": "updateTimeInterval",
      "outputs": [],
      "stateMutability": "nonpayable",
      "type": "function"
    },
    {
      "inputs": [],
      "name": "vrfCoordinatorV2",
      "outputs": [
        {
          "internalType": "contract VRFCoordinatorV2Interface",
          "name": "",
          "type": "address"
        }
      ],
      "stateMutability": "view",
      "type": "function"
    },
    {
      "inputs": [],
      "name": "withdraw",
      "outputs": [],
      "stateMutability": "nonpayable",
      "type": "function"
    }
  ],
  "transactionHash": "0xa588bfe5cbb18a2e8264cbfda1e0747fbedff0e7e3b0bb42cc112fc8b0a8455e",
  "args": [
    50,
    50,
    "0x694AA1769357215DE4FAC081bf1f309aDC325306",
    5184000,
    "0x8103B0A8A00be2DDC778e6e7eaa21791Cd364625",
    0,
    "0x474e34a077df58807dbe9c96d3c009b23b3c6d0cce433e59bbf5b34f823bc56c",
    "500000"
  ],
  "numDeployments": 1,
  "solcInputHash": "a5ec5590a8b5f3c6e606ecb05c2f7dc7",
  "bytecode": "0x6101206040523480156200001257600080fd5b506040516200278438038062002784833981810160405281019062000038919062000392565b838073ffffffffffffffffffffffffffffffffffffffff1660808173ffffffffffffffffffffffffffffffffffffffff16815250505033600560026101000a81548173ffffffffffffffffffffffffffffffffffffffff021916908373ffffffffffffffffffffffffffffffffffffffff1602179055506000600760146101000a81548160ff02191690836001811115620000d857620000d76200045b565b5b02179055508442620000eb9190620004b9565b600481905550670de0b6b3a764000088620001079190620004f4565b60018190555086600560006101000a81548161ffff021916908361ffff16021790555085600260006101000a81548173ffffffffffffffffffffffffffffffffffffffff021916908373ffffffffffffffffffffffffffffffffffffffff160217905550846003819055508373ffffffffffffffffffffffffffffffffffffffff1660a08173ffffffffffffffffffffffffffffffffffffffff16815250508267ffffffffffffffff166101008167ffffffffffffffff16815250508160c081815250508063ffffffff1660e08163ffffffff168152505050505050505050506200053f565b600080fd5b6000819050919050565b6200020781620001f2565b81146200021357600080fd5b50565b6000815190506200022781620001fc565b92915050565b600061ffff82169050919050565b62000246816200022d565b81146200025257600080fd5b50565b60008151905062000266816200023b565b92915050565b600073ffffffffffffffffffffffffffffffffffffffff82169050919050565b600062000299826200026c565b9050919050565b620002ab816200028c565b8114620002b757600080fd5b50565b600081519050620002cb81620002a0565b92915050565b600067ffffffffffffffff82169050919050565b620002f081620002d1565b8114620002fc57600080fd5b50565b6000815190506200031081620002e5565b92915050565b6000819050919050565b6200032b8162000316565b81146200033757600080fd5b50565b6000815190506200034b8162000320565b92915050565b600063ffffffff82169050919050565b6200036c8162000351565b81146200037857600080fd5b50565b6000815190506200038c8162000361565b92915050565b600080600080600080600080610100898b031215620003b657620003b5620001ed565b5b6000620003c68b828c0162000216565b9850506020620003d98b828c0162000255565b9750506040620003ec8b828c01620002ba565b9650506060620003ff8b828c0162000216565b9550506080620004128b828c01620002ba565b94505060a0620004258b828c01620002ff565b93505060c0620004388b828c016200033a565b92505060e06200044b8b828c016200037b565b9150509295985092959890939650565b7f4e487b7100000000000000000000000000000000000000000000000000000000600052602160045260246000fd5b7f4e487b7100000000000000000000000000000000000000000000000000000000600052601160045260246000fd5b6000620004c682620001f2565b9150620004d383620001f2565b9250828201905080821115620004ee57620004ed6200048a565b5b92915050565b60006200050182620001f2565b91506200050e83620001f2565b92508282026200051e81620001f2565b915082820484148315176200053857620005376200048a565b5b5092915050565b60805160a05160c05160e051610100516121eb620005996000396000818161051c01526109e801526000610a0b015260006109c7015260008181610830015261098b015260008181610540015261059401526121eb6000f3fe6080604052600436106101405760003560e01c80636939864b116100b6578063afb069521161006f578063afb06952146103f6578063b22886491461041f578063d51ee77b1461044a578063e3d670d714610475578063f71d96cb146104b2578063fd6673f5146104ef57610140565b80636939864b146103025780636c77f9891461032d5780636e04ff0d14610337578063741bef1a146103755780638da5cb5b146103a05780638f516438146103cb57610140565b80633ccfd60b116101085780633ccfd60b146102185780633d35c4f51461022f5780634244b0da1461025a5780634585e33b146102835780634f8c70cf146102ac578063649677e1146102d757610140565b806309c1ba2e146101455780631fe543e31461017057806326232a2e146101995780633197cbb6146101c45780633838bada146101ef575b600080fd5b34801561015157600080fd5b5061015a61051a565b604051610167919061133c565b60405180910390f35b34801561017c57600080fd5b50610197600480360381019061019291906114fa565b61053e565b005b3480156101a557600080fd5b506101ae6105fe565b6040516101bb9190611573565b60405180910390f35b3480156101d057600080fd5b506101d9610612565b6040516101e6919061159d565b60405180910390f35b3480156101fb57600080fd5b50610216600480360381019061021191906115b8565b610618565b005b34801561022457600080fd5b5061022d6106b2565b005b34801561023b57600080fd5b5061024461082e565b6040516102519190611664565b60405180910390f35b34801561026657600080fd5b50610281600480360381019061027c91906115b8565b610852565b005b34801561028f57600080fd5b506102aa60048036038101906102a591906116da565b6108ff565b005b3480156102b857600080fd5b506102c1610ac4565b6040516102ce9190611748565b60405180910390f35b3480156102e357600080fd5b506102ec610aea565b6040516102f9919061159d565b60405180910390f35b34801561030e57600080fd5b50610317610af0565b60405161032491906117da565b60405180910390f35b610335610b03565b005b34801561034357600080fd5b5061035e600480360381019061035991906118aa565b610ca9565b60405161036c92919061198d565b60405180910390f35b34801561038157600080fd5b5061038a610d2a565b60405161039791906119de565b60405180910390f35b3480156103ac57600080fd5b506103b5610d50565b6040516103c29190611748565b60405180910390f35b3480156103d757600080fd5b506103e0610d76565b6040516103ed919061159d565b60405180910390f35b34801561040257600080fd5b5061041d60048036038101906104189190611a25565b610d7c565b005b34801561042b57600080fd5b50610434610e2c565b604051610441919061159d565b60405180910390f35b34801561045657600080fd5b5061045f610e32565b60405161046c919061159d565b60405180910390f35b34801561048157600080fd5b5061049c60048036038101906104979190611a7e565b610e89565b6040516104a9919061159d565b60405180910390f35b3480156104be57600080fd5b506104d960048036038101906104d491906115b8565b610ea1565b6040516104e69190611748565b60405180910390f35b3480156104fb57600080fd5b50610504610ee0565b604051610511919061159d565b60405180910390f35b7f000000000000000000000000000000000000000000000000000000000000000081565b7f000000000000000000000000000000000000000000000000000000000000000073ffffffffffffffffffffffffffffffffffffffff163373ffffffffffffffffffffffffffffffffffffffff16146105f057337f00000000000000000000000000000000000000000000000000000000000000006040517f1cf993f40000000000000000000000000000000000000000000000000000000081526004016105e7929190611aab565b60405180910390fd5b6105fa8282610eed565b5050565b600560009054906101000a900461ffff1681565b60045481565b600560029054906101000a900473ffffffffffffffffffffffffffffffffffffffff1673ffffffffffffffffffffffffffffffffffffffff163373ffffffffffffffffffffffffffffffffffffffff16146106a8576040517f08c379a000000000000000000000000000000000000000000000000000000000815260040161069f90611b31565b60405180910390fd5b8060038190555050565b6000600860003373ffffffffffffffffffffffffffffffffffffffff1673ffffffffffffffffffffffffffffffffffffffff16815260200190815260200160002054905060008111610739576040517f08c379a000000000000000000000000000000000000000000000000000000000815260040161073090611b9d565b60405180910390fd5b6000600860003373ffffffffffffffffffffffffffffffffffffffff1673ffffffffffffffffffffffffffffffffffffffff1681526020019081526020016000208190555060003373ffffffffffffffffffffffffffffffffffffffff16826040516107a490611bee565b60006040518083038185875af1925050503d80600081146107e1576040519150601f19603f3d011682016040523d82523d6000602084013e6107e6565b606091505b505090508061082a576040517f08c379a000000000000000000000000000000000000000000000000000000000815260040161082190611c4f565b60405180910390fd5b5050565b7f000000000000000000000000000000000000000000000000000000000000000081565b600560029054906101000a900473ffffffffffffffffffffffffffffffffffffffff1673ffffffffffffffffffffffffffffffffffffffff163373ffffffffffffffffffffffffffffffffffffffff16146108e2576040517f08c379a00000000000000000000000000000000000000000000000000000000081526004016108d990611b31565b60405180910390fd5b670de0b6b3a7640000816108f69190611c9e565b60018190555050565b600061091960405180602001604052806000815250610ca9565b5090508061095c576040517f08c379a000000000000000000000000000000000000000000000000000000000815260040161095390611d2c565b60405180910390fd5b6001600760146101000a81548160ff0219169083600181111561098257610981611763565b5b021790555060007f000000000000000000000000000000000000000000000000000000000000000073ffffffffffffffffffffffffffffffffffffffff16635d3b1d307f00000000000000000000000000000000000000000000000000000000000000007f000000000000000000000000000000000000000000000000000000000000000060037f000000000000000000000000000000000000000000000000000000000000000060016040518663ffffffff1660e01b8152600401610a4c959493929190611db5565b6020604051808303816000875af1158015610a6b573d6000803e3d6000fd5b505050506040513d601f19601f82011682018060405250810190610a8f9190611e1d565b9050807febf56642252004c18a776f30d528e7a0ce8c5db14b6596fb6550f630c8a24c6c60405160405180910390a250505050565b600760009054906101000a900473ffffffffffffffffffffffffffffffffffffffff1681565b60015481565b600760149054906101000a900460ff1681565b60006001811115610b1757610b16611763565b5b600760149054906101000a900460ff166001811115610b3957610b38611763565b5b14610b79576040517f08c379a0000000000000000000000000000000000000000000000000000000008152600401610b7090611e96565b60405180910390fd5b600154610ba834600260009054906101000a900473ffffffffffffffffffffffffffffffffffffffff166111a5565b1015610be9576040517f08c379a0000000000000000000000000000000000000000000000000000000008152600401610be090611f02565b60405180910390fd5b34600080828254610bfa9190611f22565b925050819055506006339080600181540180825580915050600190039060005260206000200160009091909190916101000a81548173ffffffffffffffffffffffffffffffffffffffff021916908373ffffffffffffffffffffffffffffffffffffffff1602179055503373ffffffffffffffffffffffffffffffffffffffff167f3e17ac080256d6b457008ef5a493388c8684edfb0952268972c693cf603930aa60405160405180910390a2565b600060606000806001811115610cc257610cc1611763565b5b600760149054906101000a900460ff166001811115610ce457610ce3611763565b5b14905060006004544211905060008060068054905011905060008047119050838015610d0d5750825b8015610d165750815b8015610d1f5750805b955050505050915091565b600260009054906101000a900473ffffffffffffffffffffffffffffffffffffffff1681565b600560029054906101000a900473ffffffffffffffffffffffffffffffffffffffff1681565b60035481565b600560029054906101000a900473ffffffffffffffffffffffffffffffffffffffff1673ffffffffffffffffffffffffffffffffffffffff163373ffffffffffffffffffffffffffffffffffffffff1614610e0c576040517f08c379a0000000000000000000000000000000000000000000000000000000008152600401610e0390611b31565b60405180910390fd5b80600560006101000a81548161ffff021916908361ffff16021790555050565b60005481565b600080610e60600260009054906101000a900473ffffffffffffffffffffffffffffffffffffffff166111e1565b905060015481610e709190611f85565b670de0b6b3a7640000610e839190611f85565b91505090565b60086020528060005260406000206000915090505481565b60068181548110610eb157600080fd5b906000526020600020016000915054906101000a900473ffffffffffffffffffffffffffffffffffffffff1681565b6000600680549050905090565b600060068054905082600081518110610f0957610f08611fb6565b5b6020026020010151610f1b9190611fe5565b9050600060068281548110610f3357610f32611fb6565b5b9060005260206000200160009054906101000a900473ffffffffffffffffffffffffffffffffffffffff16905080600760006101000a81548173ffffffffffffffffffffffffffffffffffffffff021916908373ffffffffffffffffffffffffffffffffffffffff160217905550600067ffffffffffffffff811115610fbc57610fbb6113b7565b5b604051908082528060200260200182016040528015610fea5781602001602082028036833780820191505090505b5060069080519060200190611000929190611272565b506000600760146101000a81548160ff0219169083600181111561102757611026611763565b5b02179055506003544261103a9190611f22565b60048190555060006103e8600560009054906101000a900461ffff1661ffff166000546110679190611c9e565b6110719190611f85565b90506000816000546110839190612016565b9050600080819055508160086000600560029054906101000a900473ffffffffffffffffffffffffffffffffffffffff1673ffffffffffffffffffffffffffffffffffffffff1673ffffffffffffffffffffffffffffffffffffffff16815260200190815260200160002060008282546110fd9190611f22565b9250508190555080600860008573ffffffffffffffffffffffffffffffffffffffff1673ffffffffffffffffffffffffffffffffffffffff16815260200190815260200160002060008282546111539190611f22565b925050819055508273ffffffffffffffffffffffffffffffffffffffff167f5b690ec4a06fe979403046eaeea5b3ce38524683c3001f662c8b5a829632f7df60405160405180910390a2505050505050565b6000806111b1836111e1565b90506000670de0b6b3a764000085836111ca9190611c9e565b6111d49190611f85565b9050809250505092915050565b6000808273ffffffffffffffffffffffffffffffffffffffff1663feaf968c6040518163ffffffff1660e01b815260040160a060405180830381865afa15801561122f573d6000803e3d6000fd5b505050506040513d601f19601f8201168201806040525081019061125391906120c2565b5050509150506402540be4008161126a919061213d565b915050919050565b8280548282559060005260206000209081019282156112eb579160200282015b828111156112ea5782518260006101000a81548173ffffffffffffffffffffffffffffffffffffffff021916908373ffffffffffffffffffffffffffffffffffffffff16021790555091602001919060010190611292565b5b5090506112f891906112fc565b5090565b5b808211156113155760008160009055506001016112fd565b5090565b600067ffffffffffffffff82169050919050565b61133681611319565b82525050565b6000602082019050611351600083018461132d565b92915050565b6000604051905090565b600080fd5b600080fd5b6000819050919050565b61137e8161136b565b811461138957600080fd5b50565b60008135905061139b81611375565b92915050565b600080fd5b6000601f19601f8301169050919050565b7f4e487b7100000000000000000000000000000000000000000000000000000000600052604160045260246000fd5b6113ef826113a6565b810181811067ffffffffffffffff8211171561140e5761140d6113b7565b5b80604052505050565b6000611421611357565b905061142d82826113e6565b919050565b600067ffffffffffffffff82111561144d5761144c6113b7565b5b602082029050602081019050919050565b600080fd5b600061147661147184611432565b611417565b905080838252602082019050602084028301858111156114995761149861145e565b5b835b818110156114c257806114ae888261138c565b84526020840193505060208101905061149b565b5050509392505050565b600082601f8301126114e1576114e06113a1565b5b81356114f1848260208601611463565b91505092915050565b6000806040838503121561151157611510611361565b5b600061151f8582860161138c565b925050602083013567ffffffffffffffff8111156115405761153f611366565b5b61154c858286016114cc565b9150509250929050565b600061ffff82169050919050565b61156d81611556565b82525050565b60006020820190506115886000830184611564565b92915050565b6115978161136b565b82525050565b60006020820190506115b2600083018461158e565b92915050565b6000602082840312156115ce576115cd611361565b5b60006115dc8482850161138c565b91505092915050565b600073ffffffffffffffffffffffffffffffffffffffff82169050919050565b6000819050919050565b600061162a611625611620846115e5565b611605565b6115e5565b9050919050565b600061163c8261160f565b9050919050565b600061164e82611631565b9050919050565b61165e81611643565b82525050565b60006020820190506116796000830184611655565b92915050565b600080fd5b60008083601f84011261169a576116996113a1565b5b8235905067ffffffffffffffff8111156116b7576116b661167f565b5b6020830191508360018202830111156116d3576116d261145e565b5b9250929050565b600080602083850312156116f1576116f0611361565b5b600083013567ffffffffffffffff81111561170f5761170e611366565b5b61171b85828601611684565b92509250509250929050565b6000611732826115e5565b9050919050565b61174281611727565b82525050565b600060208201905061175d6000830184611739565b92915050565b7f4e487b7100000000000000000000000000000000000000000000000000000000600052602160045260246000fd5b600281106117a3576117a2611763565b5b50565b60008190506117b482611792565b919050565b60006117c4826117a6565b9050919050565b6117d4816117b9565b82525050565b60006020820190506117ef60008301846117cb565b92915050565b600080fd5b600067ffffffffffffffff821115611815576118146113b7565b5b61181e826113a6565b9050602081019050919050565b82818337600083830152505050565b600061184d611848846117fa565b611417565b905082815260208101848484011115611869576118686117f5565b5b61187484828561182b565b509392505050565b600082601f830112611891576118906113a1565b5b81356118a184826020860161183a565b91505092915050565b6000602082840312156118c0576118bf611361565b5b600082013567ffffffffffffffff8111156118de576118dd611366565b5b6118ea8482850161187c565b91505092915050565b60008115159050919050565b611908816118f3565b82525050565b600081519050919050565b600082825260208201905092915050565b60005b8381101561194857808201518184015260208101905061192d565b60008484015250505050565b600061195f8261190e565b6119698185611919565b935061197981856020860161192a565b611982816113a6565b840191505092915050565b60006040820190506119a260008301856118ff565b81810360208301526119b48184611954565b90509392505050565b60006119c882611631565b9050919050565b6119d8816119bd565b82525050565b60006020820190506119f360008301846119cf565b92915050565b611a0281611556565b8114611a0d57600080fd5b50565b600081359050611a1f816119f9565b92915050565b600060208284031215611a3b57611a3a611361565b5b6000611a4984828501611a10565b91505092915050565b611a5b81611727565b8114611a6657600080fd5b50565b600081359050611a7881611a52565b92915050565b600060208284031215611a9457611a93611361565b5b6000611aa284828501611a69565b91505092915050565b6000604082019050611ac06000830185611739565b611acd6020830184611739565b9392505050565b600082825260208201905092915050565b7f6e6f74206f776e65720000000000000000000000000000000000000000000000600082015250565b6000611b1b600983611ad4565b9150611b2682611ae5565b602082019050919050565b60006020820190508181036000830152611b4a81611b0e565b9050919050565b7f4e6f2062616c616e636500000000000000000000000000000000000000000000600082015250565b6000611b87600a83611ad4565b9150611b9282611b51565b602082019050919050565b60006020820190508181036000830152611bb681611b7a565b9050919050565b600081905092915050565b50565b6000611bd8600083611bbd565b9150611be382611bc8565b600082019050919050565b6000611bf982611bcb565b9150819050919050565b7f4661696c656420746f2077697468647261770000000000000000000000000000600082015250565b6000611c39601283611ad4565b9150611c4482611c03565b602082019050919050565b60006020820190508181036000830152611c6881611c2c565b9050919050565b7f4e487b7100000000000000000000000000000000000000000000000000000000600052601160045260246000fd5b6000611ca98261136b565b9150611cb48361136b565b9250828202611cc28161136b565b91508282048414831517611cd957611cd8611c6f565b5b5092915050565b7f75706b656570206e6f74206e6565646564000000000000000000000000000000600082015250565b6000611d16601183611ad4565b9150611d2182611ce0565b602082019050919050565b60006020820190508181036000830152611d4581611d09565b9050919050565b6000819050919050565b611d5f81611d4c565b82525050565b600063ffffffff82169050919050565b611d7e81611d65565b82525050565b6000611d9f611d9a611d9584611556565b611605565b611d65565b9050919050565b611daf81611d84565b82525050565b600060a082019050611dca6000830188611d56565b611dd7602083018761132d565b611de46040830186611564565b611df16060830185611d75565b611dfe6080830184611da6565b9695505050505050565b600081519050611e1781611375565b92915050565b600060208284031215611e3357611e32611361565b5b6000611e4184828501611e08565b91505092915050565b7f4c6f7474657279206973206e6f74206f70656e00000000000000000000000000600082015250565b6000611e80601383611ad4565b9150611e8b82611e4a565b602082019050919050565b60006020820190508181036000830152611eaf81611e73565b9050919050565b7f696e73756666696369656e742066756e64730000000000000000000000000000600082015250565b6000611eec601283611ad4565b9150611ef782611eb6565b602082019050919050565b60006020820190508181036000830152611f1b81611edf565b9050919050565b6000611f2d8261136b565b9150611f388361136b565b9250828201905080821115611f5057611f4f611c6f565b5b92915050565b7f4e487b7100000000000000000000000000000000000000000000000000000000600052601260045260246000fd5b6000611f908261136b565b9150611f9b8361136b565b925082611fab57611faa611f56565b5b828204905092915050565b7f4e487b7100000000000000000000000000000000000000000000000000000000600052603260045260246000fd5b6000611ff08261136b565b9150611ffb8361136b565b92508261200b5761200a611f56565b5b828206905092915050565b60006120218261136b565b915061202c8361136b565b925082820390508181111561204457612043611c6f565b5b92915050565b600069ffffffffffffffffffff82169050919050565b6120698161204a565b811461207457600080fd5b50565b60008151905061208681612060565b92915050565b6000819050919050565b61209f8161208c565b81146120aa57600080fd5b50565b6000815190506120bc81612096565b92915050565b600080600080600060a086880312156120de576120dd611361565b5b60006120ec88828901612077565b95505060206120fd888289016120ad565b945050604061210e88828901611e08565b935050606061211f88828901611e08565b925050608061213088828901612077565b9150509295509295909350565b60006121488261208c565b91506121538361208c565b92508282026121618161208c565b91507f8000000000000000000000000000000000000000000000000000000000000000841460008412161561219957612198611c6f565b5b82820584148315176121ae576121ad611c6f565b5b509291505056fea2646970667358221220d655fbf68726064d9d108b728a6ef4e29011d1f7f0a2501a4d4e6331f21bda0764736f6c63430008120033",
  "devdoc": {
    "kind": "dev",
    "methods": {
      "checkUpkeep(bytes)": {
        "details": "the function which chainlink keeper nodes call",
        "returns": {
          "upkeepNeeded": "expected to be true"
        }
      },
      "performUpkeep(bytes)": {
        "details": "then function which runs automatically if upkeep needed"
      }
    },
    "version": 1
  },
  "userdoc": {
    "kind": "user",
    "methods": {
      "getEntranceFeePerETH()": {
        "notice": "function for calculating entrance fee by ether eg: if price is 1000$ and entrance fee is 100$ amount in eth is 0.1"
      },
      "performUpkeep(bytes)": {
        "notice": "it sends request for random numbers"
      },
      "updateEntranceFee(uint256)": {
        "notice": "update the entrance fee in usd with 18 decimals"
      },
      "updatePlatformFee(uint16)": {
        "notice": "update the platform fee in percentage"
      },
      "updateTimeInterval(uint256)": {
        "notice": "update the time interval in seconds"
      }
    },
    "version": 1
  },
  "storageLayout": {
    "storage": [
      {
        "astId": 288,
        "contract": "contracts/Lottery.sol:Lottery",
        "label": "lotteryBalance",
        "offset": 0,
        "slot": "0",
        "type": "t_uint256"
      },
      {
        "astId": 290,
        "contract": "contracts/Lottery.sol:Lottery",
        "label": "entranceFee",
        "offset": 0,
        "slot": "1",
        "type": "t_uint256"
      },
      {
        "astId": 293,
        "contract": "contracts/Lottery.sol:Lottery",
        "label": "priceFeed",
        "offset": 0,
        "slot": "2",
        "type": "t_contract(AggregatorV3Interface)103"
      },
      {
        "astId": 295,
        "contract": "contracts/Lottery.sol:Lottery",
        "label": "timeInterval",
        "offset": 0,
        "slot": "3",
        "type": "t_uint256"
      },
      {
        "astId": 297,
        "contract": "contracts/Lottery.sol:Lottery",
        "label": "endTime",
        "offset": 0,
        "slot": "4",
        "type": "t_uint256"
      },
      {
        "astId": 299,
        "contract": "contracts/Lottery.sol:Lottery",
        "label": "platformFee",
        "offset": 0,
        "slot": "5",
        "type": "t_uint16"
      },
      {
        "astId": 301,
        "contract": "contracts/Lottery.sol:Lottery",
        "label": "owner",
        "offset": 2,
        "slot": "5",
        "type": "t_address"
      },
      {
        "astId": 304,
        "contract": "contracts/Lottery.sol:Lottery",
        "label": "players",
        "offset": 0,
        "slot": "6",
        "type": "t_array(t_address)dyn_storage"
      },
      {
        "astId": 306,
        "contract": "contracts/Lottery.sol:Lottery",
        "label": "recentWinner",
        "offset": 0,
        "slot": "7",
        "type": "t_address"
      },
      {
        "astId": 309,
        "contract": "contracts/Lottery.sol:Lottery",
        "label": "lotteryState",
        "offset": 20,
        "slot": "7",
        "type": "t_enum(LotteryState)286"
      },
      {
        "astId": 328,
        "contract": "contracts/Lottery.sol:Lottery",
        "label": "balance",
        "offset": 0,
        "slot": "8",
        "type": "t_mapping(t_address,t_uint256)"
      }
    ],
    "types": {
      "t_address": {
        "encoding": "inplace",
        "label": "address",
        "numberOfBytes": "20"
      },
      "t_array(t_address)dyn_storage": {
        "base": "t_address",
        "encoding": "dynamic_array",
        "label": "address[]",
        "numberOfBytes": "32"
      },
      "t_contract(AggregatorV3Interface)103": {
        "encoding": "inplace",
        "label": "contract AggregatorV3Interface",
        "numberOfBytes": "20"
      },
      "t_enum(LotteryState)286": {
        "encoding": "inplace",
        "label": "enum Lottery.LotteryState",
        "numberOfBytes": "1"
      },
      "t_mapping(t_address,t_uint256)": {
        "encoding": "mapping",
        "key": "t_address",
        "label": "mapping(address => uint256)",
        "numberOfBytes": "32",
        "value": "t_uint256"
      },
      "t_uint16": {
        "encoding": "inplace",
        "label": "uint16",
        "numberOfBytes": "2"
      },
      "t_uint256": {
        "encoding": "inplace",
        "label": "uint256",
        "numberOfBytes": "32"
      }
    }
  }
}